:020000040800F2
:1000000000000220094A000851450008594500082F
:1000100061450008694500087145000800000000BE
:10002000000000000000000000000000794500080A
:10003000874500080000000095450008A34500081A
:10004000594A0008594A0008594A0008594A000804
:10005000594A0008594A0008594A0008594A0008F4
:10006000594A0008594A0008594A0008594A0008E4
:10007000594A0008594A0008594A0008594A0008D4
:10008000594A0008594A0008594A0008000000006F
:10009000000000000000000000000000594A0008B5
:1000A000594A0008594A0008594A0008594A0008A4
:1000B000B1450008594A0008594A0008594A000841
:1000C000594A0008594A0008594A0008594A000884
:1000D000594A000861300008594A00080000000031
:1000E000594A0008594A0008594A0008000000000F
:1000F000000000000000000000000000594A000855
:1001000000000000594A0008594A0008594A0008EE
:1001100000000000000000000000000000000000DF
:10012000594A0008594A0008C5450008594A0008BC
:10013000594A000800000000000000000000000014
:10014000000000000000000000000000594A000804
:10015000594A0008594A0008594A0008594A0008F3
:10016000594A0008594A0008000000000000000039
:10017000000000000000000000000000000000007F
:1001800000000000594A00080000000000000000C4
:08019000594A0008594A000811
:1001A00010B5054C237833B9044B13B10448AFF3B1
:1001B00000800123237010BD7C000020000000009F
:1001C00054A5000808B5034B1BB103490348AFF31E
:1001D000008008BD000000008000002054A5000839
:1001E000034613F8012B002AFBD1181A0138704777
:1001F00001F0FF01102A2BDB10F0070F08D010F8D8
:10020000013B013A8B422DD010F0070F42B3F6D1DB
:10021000F0B441EA012141EA014122F007047FF0F4
:1002200000070023F0E80256083C85EA010586EA4B
:10023000010685FA47F5A3FA87F586FA47F6A5FA87
:1002400087F68EB9EED1F0BC01F0FF0102F0070293
:1002500032B110F8013B013A83EA010313B1F8D13E
:100260000020704701387047002D06BF354603381F
:10027000073815F0010F07D1013015F4807F02BF58
:10028000013015F4C03F0130F0BC0138704700BFA9
:1002900081F0004102E000BF83F0004330B54FEA37
:1002A00041044FEA430594EA050F08BF90EA020FA4
:1002B0001FBF54EA000C55EA020C7FEA645C7FEA37
:1002C000655C00F0E2804FEA5454D4EB5555B8BF5A
:1002D0006D420CDD2C4480EA020281EA030382EACB
:1002E000000083EA010180EA020281EA0303362D5D
:1002F00088BF30BD11F0004F4FEA01314FF4801C30
:100300004CEA113102D0404261EB410113F0004F41
:100310004FEA03334CEA133302D0524263EB4303F8
:1003200094EA050F00F0A780A4F10104D5F1200E96
:100330000DDB02FA0EFC22FA05F2801841F10001F1
:1003400003FA0EF2801843FA05F359410EE0A5F1C5
:1003500020050EF1200E012A03FA0EFC28BF4CF0F6
:10036000020C43FA05F3C01851EBE37101F00045AC
:1003700007D54FF0000EDCF1000C7EEB00006EEBB9
:100380000101B1F5801F1BD3B1F5001F0CD3490843
:100390005FEA30004FEA3C0C04F101044FEA44529A
:1003A00012F5800F80F09A80BCF1004F08BF5FEA21
:1003B000500C50F1000041EB045141EA050130BD01
:1003C0005FEA4C0C404141EB0101013C28BFB1F513
:1003D000801FE9D291F0000F04BF01460020B1FA5E
:1003E00081F308BF2033A3F10B03B3F120020CDA31
:1003F0000C3208DD02F1140CC2F10C0201FA0CF00F
:1004000021FA02F10CE002F11402D8BFC2F1200C73
:1004100001FA02F120FA0CFCDCBF41EA0C01904029
:10042000E41AA2BF01EB0451294330BD6FEA040472
:100430001F3C1CDA0C340EDC04F11404C4F120025D
:1004400020FA04F001FA02F340EA030021FA04F36F
:1004500045EA030130BDC4F10C04C4F1200220FAC6
:1004600002F001FA04F340EA0300294630BD21FA04
:1004700004F0294630BD94F0000F83F4801306BFCA
:1004800081F480110134013D4EE77FEA645C18BFBE
:100490007FEA655C29D094EA050F08BF90EA020F55
:1004A00005D054EA000C04BF1946104630BD91EA4D
:1004B000030F1EBF0021002030BD5FEA545C05D150
:1004C0004000494128BF41F0004130BD14F580048F
:1004D0003CBF01F5801130BD01F0004545F0FE4103
:1004E00041F470014FF0000030BD7FEA645C1ABF38
:1004F000194610467FEA655C1CBF0B46024650EA6F
:10050000013406BF52EA033591EA030F41F400219A
:1005100030BD00BF90F0000F04BF0021704730B520
:100520004FF4806404F132044FF000054FF00001F5
:1005300050E700BF90F0000F04BF0021704730B5B6
:100540004FF4806404F1320410F0004548BF40428B
:100550004FF000013EE700BF42004FEAE2014FEAE0
:1005600031014FEA02701FBF12F07F4393F07F4FBB
:1005700081F06051704732F07F4208BF704793F0BE
:100580007F4F04BF41F40021704730B54FF46074D1
:1005900001F0004521F000411CE700BF50EA0102D4
:1005A00008BF704730B54FF000050AE050EA01027D
:1005B00008BF704730B511F0004502D5404261EBED
:1005C00041014FF4806404F132045FEA915C3FF42E
:1005D000D8AE4FF003025FEADC0C18BF03325FEACB
:1005E000DC0C18BF033202EBDC02C2F1200300FA7C
:1005F00003FC20FA02F001FA03FE40EA0E0021FAA1
:1006000002F11444BDE600BF70B54FF0FF0C4CF48E
:10061000E06C1CEA11541DBF1CEA135594EA0C0F40
:1006200095EA0C0F00F0DEF82C4481EA030621EA7B
:100630004C5123EA4C5350EA013518BF52EA0335B6
:1006400041F4801143F4801338D0A0FB02CE4FF068
:100650000005E1FB02E506F00042E0FB03E54FF098
:100660000006E1FB03569CF0000F18BF4EF0010E90
:10067000A4F1FF04B6F5007F64F5407404D25FEA8C
:100680004E0E6D4146EB060642EAC62141EA55513F
:100690004FEAC52040EA5E504FEACE2EB4F1FD0C81
:1006A00088BFBCF5E06F1ED8BEF1004F08BF5FEAFF
:1006B000500E50F1000041EB045170BD06F00046B1
:1006C00046EA010140EA020081EA0301B4EB5C045E
:1006D000C2BFD4EB0C0541EA045170BD41F4801156
:1006E0004FF0000E013C00F3AB8014F1360FDEBF7B
:1006F000002001F0004170BDC4F10004203C35DA57
:100700000C341BDC04F11404C4F1200500FA05F3D9
:1007100020FA04F001FA05F240EA020001F000427A
:1007200021F0004110EBD37021FA04F642EB0601F0
:100730005EEA430E08BF20EAD37070BDC4F10C041A
:10074000C4F1200500FA04F320FA05F001FA04F2DE
:1007500040EA020001F0004110EBD37041F10001CA
:100760005EEA430E08BF20EAD37070BDC4F12005D5
:1007700000FA05F24EEA020E20FA04F301FA05F23D
:1007800043EA020321FA04F001F0004121FA04F2E5
:1007900020EA020000EBD3705EEA430E08BF20EAB5
:1007A000D37070BD94F0000F0FD101F000464000EF
:1007B00041EB010111F4801F08BF013CF7D041EA71
:1007C000060195F0000F18BF704703F00046520075
:1007D00043EB030313F4801F08BF013DF7D043EA46
:1007E0000603704794EA0C0F0CEA135518BF95EAFC
:1007F0000C0F0CD050EA410618BF52EA4306D1D183
:1008000081EA030101F000414FF0000070BD50EAA1
:10081000410606BF1046194652EA430619D094EA2B
:100820000C0F02D150EA013613D195EA0C0F05D115
:1008300052EA03361CBF104619460AD181EA030169
:1008400001F0004141F0FE4141F470014FF0000021
:1008500070BD41F0FE4141F4780170BD70B54FF0BC
:10086000FF0C4CF4E06C1CEA11541DBF1CEA13553C
:1008700094EA0C0F95EA0C0F00F0A7F8A4EB05041E
:1008800081EA030E52EA03354FEA013100F0888015
:100890004FEA03334FF0805545EA131343EA1263DE
:1008A0004FEA022245EA111545EA10654FEA002693
:1008B0000EF000419D4208BF964244F1FD0404F54C
:1008C000407402D25B084FEA3202B61A65EB0305A8
:1008D0005B084FEA32024FF480104FF4002CB6EB65
:1008E000020E75EB030E22BFB61A754640EA0C00E5
:1008F0005B084FEA3202B6EB020E75EB030E22BF25
:10090000B61A754640EA5C005B084FEA3202B6EB65
:10091000020E75EB030E22BFB61A754640EA9C0024
:100920005B084FEA3202B6EB020E75EB030E22BFF4
:10093000B61A754640EADC0055EA060E18D04FEAB2
:10094000051545EA16754FEA06164FEAC30343EA52
:1009500052734FEAC2025FEA1C1CC0D111F4801F1F
:100960000BD141EA00014FF000004FF0004CB6E718
:1009700011F4801F04BF01430020B4F1FD0C88BFB7
:10098000BCF5E06F3FF6AFAEB5EB030C04BFB6EBC2
:10099000020C5FEA500C50F1000041EB045170BDB5
:1009A0000EF0004E4EEA113114EB5C04C2BFD4EBE2
:1009B0000C0541EA045170BD41F480114FF0000E66
:1009C000013C90E645EA060E8DE60CEA135594EAE2
:1009D0000C0F08BF95EA0C0F3FF43BAF94EA0C0FE5
:1009E0000AD150EA01347FF434AF95EA0C0F7FF45A
:1009F00025AF104619462CE795EA0C0F06D152EAAE
:100A000003353FF4FDAE1046194622E750EA410691
:100A100018BF52EA43067FF4C5AE50EA41047FF4A2
:100A20000DAF52EA43057FF4EBAE12E74FEA410205
:100A3000B2F1E04324BFB3F5001CDCF1FE5C0DD93C
:100A400001F0004C4FEAC0024CEA5070B2F1004F86
:100A500040EB830008BF20F00100704711F0804F89
:100A600021D113F13872BCBF01F00040704741F44E
:100A700080114FEA5252C2F11802C2F1200C10FA52
:100A80000CF320FA02F018BF40F001004FEAC12336
:100A90004FEAD32303FA0CFC40EA0C0023FA02F3DA
:100AA0004FEA4303CCE77FEA625307D150EA0133B0
:100AB0001EBF4FF0FE4040F44000704701F0004080
:100AC00040F0FE4040F40000704700BF53B94AB9FF
:100AD000002908BF00281CBF4FF0FF314FF0FF3046
:100AE00000F088B9ADF1080C6DE904CE00F006F80D
:100AF000DDF804E0DDE9022304B070472DE9F0479A
:100B0000089D8E4604468846002B4AD18A421746E5
:100B100062D9B2FA82F64EB1C6F1200301FA06F8A4
:100B200020FA03F3B74043EA0808B4404FEA174EEF
:100B30001FFA87FCB8FBFEF1230C0EFB118843EA79
:100B4000084301FB0CF29A4209D9FB1801F1FF306E
:100B500080F0EA809A4240F2E78002393B449A1AD8
:100B6000A3B2B2FBFEF00EFB102243EA024300FBED
:100B70000CFC9C4509D9FB1800F1FF3280F0D680AF
:100B80009C4540F2D3803B44023840EA0140A3EB4D
:100B90000C0300211DB1F3400022C5E90032BDE87D
:100BA000F0878B4205D90DB1C5E900010021084647
:100BB000F5E7B3FA83F1002946D1734502D38242A7
:100BC00000F20581841A6EEB030201209046002D8D
:100BD000E5D0C5E90048E2E7002A00F09080B2FACB
:100BE00082F6002E40F0A4808A1A030C4FEA174EBA
:100BF00080B2BCB20121B2FBFEFC0EFB1C2243EA18
:100C0000024304FB0CF29A4207D9FB180CF1FF389F
:100C100002D29A4200F2E080C4469B1AB3FBFEF275
:100C20000EFB123340EA034302FB04F49C4207D953
:100C3000FB1802F1FF3002D29C4200F2CA80024649
:100C40001B1B42EA0C40A5E7C1F120068B4022FAAB
:100C500006F71F430EFA01F420FA06F32EFA06FEF9
:100C60004FEA1749234300FA01F81FFA87FCBEFB3D
:100C7000F9F01C0C09FB10EE44EA0E4400FB0CFEDC
:100C8000A64502FA01F209D93C1900F1FF3A80F0B9
:100C90009C80A64540F2998002383C44A4EB0E04A7
:100CA0001FFA83FEB4FBF9F309FB13444EEA044434
:100CB00003FB0CFCA44508D93C1903F1FF3E80F06E
:100CC0008280A4457FD9023B3C4443EA0040A4EB28
:100CD0000C04A0FB02EC64457346E14662D35FD08E
:100CE0005DB1B8EB030264EB090404FA06F622FADC
:100CF00001F31E43CC40C5E9006400214FE7B1FB7E
:100D0000F2FC010C41EA0E4180B240EA01423B464E
:100D100038463C46B846BE462026B1FBF7F1A2EB6A
:100D2000080241EA0C4166E7014618E710462CE745
:100D3000C6F120022EFA02F3B740B14020FA02F2C7
:100D40004FEA174E0A43B3FBFEF8BCB20EFB183352
:100D5000110C41EA034108FB04F9B04089454FEA10
:100D6000104380B23ED9791808F1FF3C01D2894581
:100D70001FD8A1EB0901B1FBFEF909FB04F80EFB3A
:100D8000191192B242EA0142424529D2BA1809F138
:100D9000FF31C4D24245C2D2A9F102013A44BEE7B2
:100DA000F0459DD2BEEB02036CEB070C0138E14627
:100DB00096E7A7EB09094944A8F1020CB1FBFEF93B
:100DC00009FB04F8DBE773467FE7504666E7084611
:100DD000FDE63B44023A33E7ACF1020C3B441CE72E
:100DE00049469CE7A1EB0901C446B1FBFEF909FBAA
:100DF00004F8C4E7704700BF80B485B000AF034675
:100E00000A46FB8013467B71A023FB81FB88DB092C
:100E10009BB25B009BB203F00203BB81FA89BB89E2
:100E200013439BB21AB27B79002B0CBF0123002322
:100E3000DBB21BB213431BB29BB218461437BD463C
:100E40005DF8047B7047000080B58AB004AF0346AC
:100E50003960FB801346BB800023FB8238E0FB88AF
:100E600003F00F039BB2C3F11003BB82BA8AB988A7
:100E7000FB8ACB1A9342A8BF13467B82FB880121D1
:100E80001846FFF7B9FF03463B82FB88DBB298B2F6
:100E9000FB8A3A681344398A642202927A8A019260
:100EA0000093012302460F4804F064FE0346FB73DF
:100EB000FB7B002B01D0FB7B0FE0FA8A7B8A13447B
:100EC000FB82FA887B8A1344FB80052003F038FEFE
:100ED000FA8ABB889A42C2D3002318461837BD4607
:100EE00080BD00BF9C07002080B588B004AF0346DA
:100EF0003960FB801346BB80FB8800211846FFF752
:100F00007BFF0346FB81FB88DBB29AB2F98964233D
:100F10000293BB8801933B6800930123034804F0CC
:100F200023FF034618461037BD4680BD9C070020AE
:100F300080B500AF4FF400720021054808F049FD6C
:100F40004FF401720021034808F043FD00BF80BD4B
:100F5000980000209802002080B483B000AF144BAA
:100F60000022C3F8E021124B0022C3F8E421104B09
:100F7000012283F800220E4B002283F80122002375
:100F80007B600AE00A4A7B687A339B0013444FF087
:100F900000021A607B6801337B607B68052BF1DD02
:100FA00000BF00BF0C37BD465DF8047B704700BF33
:100FB0009802002080B485B000AF78600023FB73F6
:100FC0000023BB730023FB7318E0FB7B274A7A33B3
:100FD0009B00134493ED007AFB7B9B007A681344DB
:100FE000D3ED007AFB7B77EE277A204A7A339B0099
:100FF0001344C3ED007AFB7B0133FB73FB7B052BB2
:10100000E3D91A4BD3F8E4310133184AC2F8E4317A
:10101000164BD3F8E431132B22DD0023BB7314E00D
:10102000BB7B124A7A339B00134493ED007ABB7B5F
:10103000F3EE046AC7EE267A0D4A12339B0013447E
:10104000C3ED007ABB7B0133BB73BB7B052BE7D9B8
:10105000064B002283F80022044B012283F8012270
:1010600000BF1437BD465DF8047B7047980200202E
:10107000FC08002080B400AF044B002283F801225A
:1010800000BFBD465DF8047B704700BF980200209A
:1010900080B400AF064B93F80132002B14BF01233C
:1010A0000023DBB21846BD465DF8047B704700BFE5
:1010B0009802002080B483B000AF164B002283F862
:1010C0000022144B002283F80122124B0022C3F8A5
:1010D000E42100237B6012E00F4A7B6812339B00FF
:1010E00013444FF000021A600A4A7B687A339B006F
:1010F00013444FF000021A607B6801337B607B6809
:10110000052BE9DD00BF00BF0C37BD465DF8047B51
:10111000704700BF98020020FC08002080B582B014
:1011200000AF00237B600C4B1B6B0B4A43F4800326
:101130001363094B1B6B03F480037B607B68002205
:1011400000213A2003F0FBFD3A2003F014FE00BF1B
:101150000837BD4680BD00BF0038024080B483B070
:1011600000AF00237B6032E000233B600CE01D49B0
:101170007B685A013B6813449B000B444FF000020C
:101180001A603B6801333B603B681D2BEFDD154A5D
:101190007B68DB01134478334FF000021A60114A78
:1011A0007B68DB0113447C3300221A700D4A7B6894
:1011B000DB0113447D3300221A700A4A7B68DB018D
:1011C00013447E3300221A707B6801337B607B6896
:1011D000052BC9DD00BF00BF0C37BD465DF8047BA1
:1011E000704700BF9C04002080B485B000AF034668
:1011F00087ED000AFB71FB79052B02D9DFED397A07
:1012000069E0FB79DB01384A1344BB60BB6893F8A3
:101210007E30002B22D10023FB6008E0BA68FB6817
:101220009B0013443A681A60FB680133FB60FB685B
:101230001D2BF3DDD7ED007AB3EE0E7A67EE877AD9
:10124000BB68C3ED1E7ABB681E2283F87D20BB6895
:10125000012283F87E20D7ED007A3CE0BB6893ED55
:101260001E7ABB6893F87C30BA689B001344D3EDB8
:10127000007A77EE677ABB68C3ED1E7ABB6893F895
:101280007C30BA689B0013443A681A60BB6893EDDF
:101290001E7AD7ED007A77EE277ABB68C3ED1E7A07
:1012A000BB6893F87C305A1C104B83FB0213134429
:1012B0001911D317C91A0B461B015B1A5B00D11A0F
:1012C000CAB2BB6883F87C20BB6893ED1E7AF3EE4C
:1012D0000E6AC7EE267AB0EE670A1437BD465DF88F
:1012E000047B7047000000009C04002089888888E7
:1012F00080B592B000AF00237B6400233B640023E1
:10130000FB630023BB6307F118032022002118466A
:1013100008F05FFB3B4600221A605A609A60DA6070
:101320001A615A6100237B6477E07B6C052B0DD03A
:101330007B6C9BB21A4652001344DB009BB207F150
:10134000180118221846FFF7CFFD06E007F1180331
:10135000182219468020FFF7C7FD00233B643CE0BC
:101360003B6C002B00DA03339B10FB633B6C5A424F
:1013700003F0030302F0030258BF5342BB63BB6B8D
:10138000002B05DA294B2A4A65212A4808F03EF944
:10139000FB6B9B0048333B4453F8482CBB6BC3F1B9
:1013A0000303DB00FF2101FA03F3DB431A4007F1DB
:1013B00018013B6C0B441B781946BB6BC3F103034C
:1013C000DB0001FA03F31A43FB6B9B0048333B44F9
:1013D00043F8482C3B6C01333B643B6C172BBFDD5F
:1013E00000233B6413E03B6C9B0048333B44483B89
:1013F000196811487A6C13465B0013445B003A6C21
:1014000013449B00034419603B6C01333B643B6C09
:10141000052BE8DD7B6C01337B647B6C052B84DD65
:10142000012318464837BD4680BD00BF6CA50008A3
:10143000B4A600087CA500087009002080B582B021
:1014400000AF0346FB71FB79052B12D0FB799BB2F1
:101450001A4652001344DB0098B2FA7913465B0037
:101460001344DB000E4A134418221946FFF7ECFC24
:1014700011E0FB79052B0CD1FA7913465B0013447C
:10148000DB00074A1344182219468020FFF7DCFCD2
:1014900001E0002300E0012318460837BD4680BD67
:1014A0007009002080B500AF182203499820FFF78B
:1014B000CBFC0123184680BD4409002080B58AB0CA
:1014C00000AF07F1140300221A605A609A60DA60D4
:1014D0001A6100233B61454B1B6B444A43F00403F4
:1014E0001363424B1B6B03F004033B613B69002316
:1014F000FB603E4B1B6B3D4A43F0800313633B4B49
:101500001B6B03F08003FB60FB680023BB60374B61
:101510001B6B364A43F001031363344B1B6B03F020
:101520000103BB60BB6800237B60304B1B6B2F4A01
:1015300043F0020313632D4B1B6B03F002037B602C
:101540007B68002240F21471294804F0B5F90022AA
:1015500041F21101274804F0AFF94FF460437B6179
:101560000323BB610023FB6107F1140319462248E2
:1015700004F01EF841F60B037B610323BB610023DB
:10158000FB6107F114031946194804F011F840F201
:1015900014737B610123BB610023FB6100233B6269
:1015A00007F114031946124804F002F841F211033E
:1015B0007B610123BB610023FB6100233B6207F1D8
:1015C000140319460B4803F0F3FF40F226737B61C6
:1015D0000323BB610023FB6107F11403194605488F
:1015E00003F0E6FF00BF2837BD4680BD003802404B
:1015F00000000240000402400008024080B500AF35
:10160000124B134A1A60114B124A5A600F4B0022B8
:101610009A600E4B0022DA600C4B4FF480421A6144
:101620000A4B00225A61094B00229A61074B0022A3
:10163000DA61064B00221A62044804F057F90346A7
:10164000002B01D001F0BEFF00BF80BD9C07002031
:1016500000540040A086010080B58AB000AF7860D9
:1016600007F1140300221A605A609A60DA601A6166
:101670007B681B68194A93422BD100233B61184BAE
:101680001B6B174A43F002031363154B1B6B03F0EC
:1016900002033B613B69C0237B611223BB610023D2
:1016A000FB6103233B6204237B6207F114031946A9
:1016B0000C4803F07DFF0023FB60094B1B6C084ABC
:1016C00043F400131364064B1B6C03F40013FB601C
:1016D000FB6800BF2837BD4680BD00BF00540040F6
:1016E000003802400004024080B485B000AF78604A
:1016F0007B68FB60FB68054A5A63FB6810229A63AB
:1017000000BF1437BD465DF8047B704700000240FF
:1017100080B485B000AF78607B68FB60FB68054AE9
:101720005A63FB6801229A6300BF1437BD465DF817
:10173000047B70470004024080B582B000AF78603F
:1017400039603B689BB201221946786804F0B4F80E
:1017500000BF0837BD4680BD80B582B000AF78605D
:1017600039603B689BB200221946786804F0A4F8FF
:1017700000BF0837BD4680BD80B586B002AFF860B7
:10178000B9601346FB80FB884FF6FF720092BA687F
:10179000F968044805F0EFFD002318461037BD46F0
:1017A00080BD00BF3817002080B500AF0121094877
:1017B00000F05AFB00BF8021064800F069FC034698
:1017C000012BF8D0034800F082FB024B9B6C1846BB
:1017D00080BD00BFF407002080B500AF012109489B
:1017E00000F042FB00BF8021064800F051FC034698
:1017F000012BF8D0034800F06AFB024B9B6C1846A3
:1018000080BD00BF7408002080B584B000AF0346DF
:10181000FB71B148FFF768FFAF4800F06BF9AE48C5
:1018200000F0CCF9AD48FFF773FFAC4800F094F935
:10183000AA4800F0C3F9FF23FB73A94B00221A70DA
:10184000A54800F0E1F90346FB73FB7B282B0DD084
:10185000A34B1B780133DAB2A14B1A70A14801F0F7
:10186000D9FB01219E4802F036FAE9E700BF9A4809
:1018700000F019FB984B012283F85020964B002270
:1018800083F85120944B002283F85220924B01227E
:1018900083F853200921904800F0C6F98E4B0122AD
:1018A00083F850208C4B002283F851208A4B02226F
:1018B00083F85220884B032283F853200A2186485C
:1018C00000F0B2F9844B012283F85020824B0022B1
:1018D00083F85120804B042283F852207E4B05224E
:1018E00083F853200B217C4800F09EF97A4B0122AB
:1018F00083F86420784B012283F86720764B01221D
:1019000083F86820744B002283F86920724B002210
:1019100083F86520704B002283F866206E4B072207
:1019200083F86A206C4B402283F86B20FB799AB2D3
:10193000694BA3F86C200021674800F0B9F9012138
:10194000654800F0B5F90221634800F0B1F9624B37
:10195000022283F87920604B002283F87B205E4BC3
:10196000012283F876205C4B002283F877205A4BC3
:10197000002283F87420584800F03CFA5A4801F0DD
:1019800049FBFF23FB73564B00221A70534800F0AB
:101990003BF90346FB73FB7B282B0DD0504B1B7888
:1019A0000133DAB24E4B1A70504801F033FB01217B
:1019B0004B4802F090F9E9E700BF484800F073FA9D
:1019C000464B012283F85020444B002283F85120DB
:1019D000424B002283F85220404B012283F85320CF
:1019E00009213E4800F020F93C4B012283F85020A9
:1019F0003A4B002283F85120384B022283F85220C0
:101A0000364B032283F853200A21344800F00CF9A6
:101A1000324B012283F85020304B002283F85120B2
:101A20002E4B042283F852202C4B052283F853209E
:101A30000B212A4800F0F8F8284B012283F8642093
:101A4000264B012283F86720244B012283F868206B
:101A5000224B002283F86920204B002283F8652066
:101A60001E4B002283F866201C4B072283F86A2055
:101A70001A4B402283F86B20FB799AB2174BA3F8DC
:101A80006C200021154800F013F90121134800F0E3
:101A90000FF90221114800F00BF9104B022283F8D4
:101AA00079200E4B002283F87B200C4B012283F817
:101AB00076200A4B002283F87720084B002283F817
:101AC0007420064800F096F9094801F0A3FA00BF17
:101AD0001037BD4680BD00BFF40700207408002009
:101AE000F007002098A50008ACA50008C8A50008CC
:101AF000DCA5000880B582B000AF78607B68114A31
:101B00001A607B68104A5A607B68104A9A607B684A
:101B10000F4ADA607B680F4A1A617B6800225A63B9
:101B20007B6800229A637B680022DA637B6800226C
:101B30001A647B68DB687868984700BF0837BD4641
:101B400080BD00BF79170008391700085917000831
:101B5000E91600083123000880B582B000AF786034
:101B60007B68114A1A607B68104A5A607B68104A89
:101B70009A607B680F4ADA607B680F4A1A617B685B
:101B800000225A637B6800229A637B680022DA6332
:101B90007B6800221A647B68DB687868984700BF1E
:101BA0000837BD4680BD00BF791700083917000807
:101BB00059170008111700083123000880B584B0B8
:101BC00000AF78607B680822A3F844200023FB73F1
:101BD00007E0FB7B7A681344FF221A75FB7B013315
:101BE000FB73FB7B9AB27B68B3F844309A42F0D324
:101BF000786800F054FB7B681B694FF47A70984753
:101C000000BF1037BD4680BD80B582B000AF7860A0
:101C100001220521786800F077FA7B6893F8253077
:101C200018460837BD4680BD80B582B000AF7860E9
:101C30000B46FB707B680022DA647B68DA6C7B6899
:101C400093F85030D9037B6893F851301B03194344
:101C50007B6893F852305B010B43796891F853101D
:101C60000B431A437B68DA64104B00221A6012E0BF
:101C70007B68DA6CF9780223786800F0B5FA052001
:101C800002F05EFFFB7802221946786800F03CFA09
:101C90000346064A13607B68DA6C044B1B689A4261
:101CA000E6D100BF00BF0837BD4680BDF408002064
:101CB00080B582B000AF78600B46FB707B6893F80C
:101CC0006930022B03D10121786800F0FCF97B68B0
:101CD00093F86930122B03D10021786800F0F3F9F2
:101CE0007B6800225A657B685A6D7B6893F8643084
:101CF000D9027B6893F865301B0219437B6893F81F
:101D00006630DB0119437B6893F867309B01194308
:101D10007B6893F868305B0119437B6893F86930FE
:101D2000DB0003F018030B43796891F86A100B434A
:101D30001A437B685A652E4B00221A6019E0FB7823
:101D40001933D9B27B685A6D0223786800F04CFAD7
:101D5000052002F0F5FEFB781933DBB202221946AA
:101D6000786800F0D1F90346214A13600A2002F096
:101D7000E7FE7B685A6D1E4B1B689A42DFD17B6879
:101D800000229A657B689A6D7B6893F86B301B0420
:101D90007968B1F86C100B431A437B689A65144B51
:101DA00000221A6019E0FB782133D9B27B689A6D62
:101DB0000323786800F018FA052002F0C1FEFB78D2
:101DC0002133DBB203221946786800F09DF90346FF
:101DD000074A13600A2002F0B3FE7B689A6D044B39
:101DE0001B689A42DFD100BF00BF0837BD4680BDE7
:101DF000F408002080B582B000AF78600222012193
:101E0000786800F081F902467B681A677B681A6F70
:101E100040F63C1313407A6813677B681A6F7B683F
:101E200093F8743019037B6893F876309B0219435A
:101E30007B6893F877305B0219437B6893F87930BD
:101E40009B010B43796891F87B100B431A437B6825
:101E50001A677B681A6F02230121786800F0C4F9C1
:101E600000BF0837BD4680BD80B582B000AF786046
:101E70000B46FB70FB781946786800F0DCF87B684D
:101E80005B687A68506B7A68926B114698477B68FA
:101E90009B687A68506B7A68926B1146984700BFCE
:101EA0000837BD4680BD80B582B000AF78600421A0
:101EB000786800F0C0F87B685B687A68506B7A6875
:101EC000926B1146984700BF0837BD4680BD80B56C
:101ED00084B000AF78607B6893F87A30102B59D0CB
:101EE000102B00F3A480012B02DC002B05DA9EE00E
:101EF000023B062B00F29B8099E07B6802221A7558
:101F00007B681B7D03F07F03DAB27B681A757B6800
:101F10001B7D43F04003DAB27B681A757B680422AC
:101F2000A3F844207B6893F87630012B07D17B68B7
:101F3000B3F8443001339AB27B68A3F844200023FD
:101F4000FB7307E0FB7B7A681344FF225A75FB7B27
:101F50000133FB73FB7B9AB27B68B3F844309A423F
:101F6000F0D3786800F0BFF97B6893F825301A0445
:101F70007B6893F826301B0213437A6892F8272077
:101F80001A437B689A647B6893F828207B6883F8FF
:101F900046204CE07B6800221A757B680322A3F878
:101FA00044207B6893F87630012B07D17B68B3F827
:101FB000443001339AB27B68A3F844207B68B3F8BD
:101FC000443001339AB27B68A3F844200023BB73EA
:101FD00007E0BB7B7A68134400225A75BB7B013350
:101FE000BB73BB7B9AB27B68B3F844309A42F0D3A0
:101FF000786800F078F97B6893F824301A047B68DD
:1020000093F825301B0213437A6892F826201A436E
:102010007B689A647B6893F827207B6883F8462066
:102020007B6893F828207B6883F8472000BF00BFB7
:102030001037BD4680BD80B586B000AF78600B46D6
:10204000FB7002220121786800F05EF80346FB6015
:10205000FB6823F4036323F00C03FB60FA68FB784E
:102060009B0003F03C01FB78DB0103F400630B43AE
:102070001343FB607B68FA7883F87A20FA680223BE
:102080000121786800F0B0F800BF1837BD4680BD68
:1020900080B584B000AF78600B46FB700122002150
:1020A000786800F031F80346DBB23B733A7BFB788B
:1020B0001340DBB2002B01D0012300E000231846BF
:1020C0001037BD4680BD80B586B000AF78600B4646
:1020D000FB7002220121786800F016F80346FB60CD
:1020E000FB6823F48073FB60FA68FB781B021343E0
:1020F000FB60FA6802230121786800F075F800BFE0
:102100001837BD4680BD000080B586B000AF78604E
:102110000B46FB701346BB707B68FA781A757B68B8
:102120001B7D03F07F03DAB27B681A757B681B7D29
:1021300043F04003DAB27B681A75BB789BB2013377
:102140009AB27B68A3F844207B68B3F8443001332B
:102150009AB27B68A3F844200023FB7507E0FB7D5F
:102160007A681344FF225A75FB7D0133FB75FA7DB3
:10217000BB789A42F3D3786800F091F87B68DB6F04
:1021800003F00403002B0AD0FB78164AD35C01331A
:102190007A68134493F824207B6883F847207B688F
:1021A0001A7D7B6883F8242000233B610023FB73A6
:1021B0000FE03B691B023B61FB7B01337A681344F0
:1021C00093F824301A463B6913433B61FB7B013390
:1021D000FB73FA7BBB789A42EBD33B6918461837FE
:1021E000BD4680BDC4A6000890B587B000AFF860BA
:1021F0007A601A460B46FB721346BB72FB68FA7A8A
:102200001A75FB681B7D03F07F03DAB2FB681A7551
:10221000FB681B7D23F04003DAB2FB681A75BB7ABA
:102220009BB201339AB2FB68A3F844207B687B61C0
:102230000023FB740FE0BA7AFB7C0133D31A7A696E
:10224000D1B2FA6813440A465A757B691B0A7B614E
:10225000FB7C0133FB74FA7CBB7A9A42EBD3FB68BC
:1022600003F11402FB68B3F84430DBB2BC7A1946C0
:10227000104600F079F803461A46FB6823445A7565
:10228000FB68B3F8443001339AB2FB68A3F84420EA
:10229000F86800F004F800BF1C37BD4690BD80B55B
:1022A00082B000AF78607B689B687A68506B7A6810
:1022B000926B114698477B681B687A6802F114009C
:1022C0007A6802F124017A68B2F8442098477B6862
:1022D0005B687A68506B7A68926B1146984700BFCA
:1022E0000837BD4680BD80B582B000AF78607B689E
:1022F0009B687A68506B7A68926B114698477B6846
:102300001B687A6802F114007A6802F124017A6885
:10231000B2F8442098477B685B687A68506B7A68AB
:10232000926B1146984700BF0837BD4680BD00003C
:1023300080B483B000AF78607B68C82202FB03F3EF
:10234000084AA2FB0323DB087B60FFE77B685A1E79
:102350007A60002BFAD100BF00BF0C37BD465DF894
:10236000047B7047CDCCCCCC80B485B000AF786016
:102370000B46FB700023FB730023BB7322E0BB7B87
:102380007A6813441A78FB7B5340FB7300237B73FA
:1023900012E097F90F30002B08DA97F90F305B0045
:1023A0005BB283F007035BB2FB7302E0FB7B5B0075
:1023B000FB737B7B01337B737B7B072BE9D9BB7B77
:1023C0000133BB73BA7BFB789A42D8D3FB7B1846A8
:1023D0001437BD465DF8047B7047000080B483B0BD
:1023E00000AF0346FB71104B1B781846FA790F4972
:1023F00003465B0003445B00134451F82330A3F50C
:10240000000307EE903AF8EEE77A9FED097A67EE5F
:10241000877A9FED087A67EE877AB0EE670A0C3705
:10242000BD465DF8047B7047020A0020040A0020C4
:102430000000003400401C45B0B584B000AF7860A7
:102440000023FB600C4B5B78DBB2002B18D1002320
:10245000FB600CE0FB689B007A6813441A6807492C
:10246000FB689B000B441A60FB680133FB60FB6850
:10247000052BEFDD00F0A2BD5C090020FC08002068
:10248000DF4B5B78DBB2012B40F00684DD4B93ED34
:10249000007A7B68D3ED007A67EE277A17EE900A10
:1024A000FEF75AF8D4A3D3E90023FEF7D7F9024682
:1024B0000B4614461D46D34B93ED017A7B680433DB
:1024C000D3ED007A67EE277A17EE900AFEF744F80C
:1024D000C9A3D3E90023FEF7C1F902460B46204603
:1024E0002946FDF7DBFE02460B4614461D46C54B4A
:1024F00093ED027A7B680833D3ED007A67EE277A92
:1025000017EE900AFEF728F8BBA3D3E90023FEF7E5
:10251000A5F902460B4620462946FDF7BFFE0246B6
:102520000B4614461D46B74B93ED037A7B680C337C
:10253000D3ED007A67EE277A17EE900AFEF70CF8D3
:10254000ADA3D3E90023FEF789F902460B462046E6
:102550002946FDF7A3FE02460B4614461D46A94B2D
:1025600093ED047A7B681033D3ED007A67EE277A17
:1025700017EE900AFDF7F0FF9FA3D3E90023FEF7C3
:102580006DF902460B4620462946FDF787FE0246B6
:102590000B4614461D469B4B93ED057A7B6814331E
:1025A000D3ED007A67EE277A17EE900AFDF7D4FF95
:1025B00091A3D3E90023FEF751F902460B462046CA
:1025C0002946FDF76BFE02460B4610461946FEF7FC
:1025D0002DFA03468C4A13608A4B93ED067A7B688A
:1025E000D3ED007A67EE277A17EE900AFDF7B4FF75
:1025F00081A3D3E90023FEF731F902460B461446C6
:102600001D46804B93ED077A7B680433D3ED007A47
:1026100067EE277A17EE900AFDF79EFF76A3D3E9BF
:102620000023FEF71BF902460B4620462946FDF71C
:1026300035FE02460B4614461D46724B93ED087A52
:102640007B680833D3ED007A67EE277A17EE900A9D
:10265000FDF782FF68A3D3E90023FEF7FFF80246E7
:102660000B4620462946FDF719FE02460B46144646
:102670001D46644B93ED097A7B680C33D3ED007AE9
:1026800067EE277A17EE900AFDF766FF5AA3D3E9A3
:102690000023FEF7E3F802460B4620462946FDF7E5
:1026A000FDFD02460B4614461D46564B93ED0A7A35
:1026B0007B681033D3ED007A67EE277A17EE900A25
:1026C000FDF74AFF4CA3D3E90023FEF7C7F8024603
:1026D0000B4620462946FDF7E1FD02460B4614460F
:1026E0001D46484B93ED0B7A7B681433D3ED007A8B
:1026F00067EE277A17EE900AFDF72EFF3EA3D3E987
:102700000023FEF7ABF802460B4620462946FDF7AC
:10271000C5FD02460B4610461946FEF787F90346EB
:10272000394A5360374B93ED0C7A7B68D3ED007ACE
:1027300067EE277A17EE900AFDF70EFF2EA3D3E976
:102740000023FEF78BF802460B4614461D462D4B20
:1027500093ED0D7A7B680433D3ED007A67EE277A28
:1027600017EE900AFDF7F8FE23A3D3E90023FEF746
:1027700075F802460B4620462946FDF78FFD0246B6
:102780000B4614461D461F4B93ED0E7A7B680833AB
:10279000D3ED007A67EE277A17EE900AFDF7DCFE9C
:1027A00015A3D3E90023FEF759F802460B4620464D
:1027B0002946FDF773FD02460B4614461D46114B94
:1027C00093ED0F7A7B680C33D3ED007A67EE277AAE
:1027D00017EE900AFDF7C0FE07A3D3E90023FEF72A
:1027E0003DF802460B4620462946FDF757FD0246B6
:1027F0000B4614461D4609E09A99999999992340E8
:102800005C09002070090020FC080020E04B93EDDB
:10281000107A7B681033D3ED007A67EE277A17EED3
:10282000900AFDF799FED8A3D3E90023FEF716F826
:1028300002460B4620462946FDF730FD02460B4670
:1028400014461D46D24B93ED117A7B681433D3EDB9
:10285000007A67EE277A17EE900AFDF77DFECAA38D
:10286000D3E90023FDF7FAFF02460B46204629462E
:10287000FDF714FD02460B4610461946FEF7D6F842
:102880000346C44A9360C24B93ED127A7B68D3ED42
:10289000007A67EE277A17EE900AFDF75DFEBAA37D
:1028A000D3E90023FDF7DAFF02460B4614461D4626
:1028B000B74B93ED137A7B680433D3ED007A67EE60
:1028C000277A17EE900AFDF747FEAFA3D3E900235E
:1028D000FDF7C4FF02460B4620462946FDF7DEFC05
:1028E00002460B4614461D46A94B93ED147A7B68AD
:1028F0000833D3ED007A67EE277A17EE900AFDF7DA
:102900002BFEA1A3D3E90023FDF7A8FF02460B4647
:1029100020462946FDF7C2FC02460B4614461D46DA
:102920009B4B93ED157A7B680C33D3ED007A67EE01
:10293000277A17EE900AFDF70FFE93A3D3E9002341
:10294000FDF78CFF02460B4620462946FDF7A6FC04
:1029500002460B4614461D468D4B93ED167A7B6856
:102960001033D3ED007A67EE277A17EE900AFDF761
:10297000F3FD85A3D3E90023FDF770FF02460B4664
:1029800020462946FDF78AFC02460B4614461D46A2
:102990007F4B93ED177A7B681433D3ED007A67EEA3
:1029A000277A17EE900AFDF7D7FD77A3D3E9002326
:1029B000FDF754FF02460B4620462946FDF76EFC04
:1029C00002460B4610461946FEF730F80346714A98
:1029D000D3606F4B93ED187A7B68D3ED007A67EE86
:1029E000277A17EE900AFDF7B7FD67A3D3E9002316
:1029F000FDF734FF02460B4614461D46644B93ED2B
:102A0000197A7B680433D3ED007A67EE277A17EEE4
:102A1000900AFDF7A1FD5CA3D3E90023FDF71EFF9B
:102A200002460B4620462946FDF738FC02460B4677
:102A300014461D46564B93ED1A7A7B680833D3ED46
:102A4000007A67EE277A17EE900AFDF785FD4EA310
:102A5000D3E90023FDF702FF02460B462046294634
:102A6000FDF71CFC02460B4614461D46484B93EDF1
:102A70001B7A7B680C33D3ED007A67EE277A17EE6A
:102A8000900AFDF769FD40A3D3E90023FDF7E6FEB8
:102A900002460B4620462946FDF700FC02460B463F
:102AA00014461D463A4B93ED1C7A7B681033D3EDE8
:102AB000007A67EE277A17EE900AFDF74DFD32A3F4
:102AC000D3E90023FDF7CAFE02460B4620462946FD
:102AD000FDF7E4FB02460B4614461D462C4B93EDD6
:102AE0001D7A7B681433D3ED007A67EE277A17EEF0
:102AF000900AFDF731FD24A3D3E90023FDF7AEFED4
:102B000002460B4620462946FDF7C8FB02460B4607
:102B100010461946FDF78AFF03461E4A13611C4BF7
:102B200093ED1E7A7B68D3ED007A67EE277A17EE75
:102B3000900AFDF711FD14A3D3E90023FDF78EFEE3
:102B400002460B4614461D46114B93ED1F7A7B68D7
:102B50000433D3ED007A67EE277A17EE900AFDF77B
:102B6000FBFC09A3D3E90023FDF778FE02460B46E0
:102B700020462946FDF792FB02460B4614461D46A9
:102B80000AE000BFAFF300809A9999999999234080
:102B900070090020FC0800203D4B93ED207A7B68F3
:102BA0000833D3ED007A67EE277A17EE900AFDF727
:102BB000D3FC35A3D3E90023FDF750FE02460B46B4
:102BC00020462946FDF76AFB02460B4614461D4681
:102BD0002F4B93ED217A7B680C33D3ED007A67EEAF
:102BE000277A17EE900AFDF7B7FC27A3D3E9002355
:102BF000FDF734FE02460B4620462946FDF74EFB04
:102C000002460B4614461D46214B93ED227A7B6803
:102C10001033D3ED007A67EE277A17EE900AFDF7AE
:102C20009BFC19A3D3E90023FDF718FE02460B46CF
:102C300020462946FDF732FB02460B4614461D4648
:102C4000134B93ED237A7B681433D3ED007A67EE50
:102C5000277A17EE900AFDF77FFC0BA3D3E9002338
:102C6000FDF7FCFD02460B4620462946FDF716FB04
:102C700002460B4610461946FDF7D8FE0346054AA4
:102C800053619BE1AFF300809A99999999992340F8
:102C900070090020FC080020CA4B5B78DBB2022BD5
:102CA00040F08C81C84B93ED007A7B68D3ED007ABD
:102CB00027EE277AC44BD3ED016A7B680433D3ED4A
:102CC000007A66EEA77A37EE277ABF4BD3ED026A19
:102CD0007B680833D3ED007A66EEA77A37EE277A61
:102CE000B94BD3ED036A7B680C33D3ED007A66EE03
:102CF000A77A37EE277AB44BD3ED046A7B6810339A
:102D0000D3ED007A66EEA77A37EE277AAE4BD3ED95
:102D1000056A7B681433D3ED007A66EEA77A77EE06
:102D2000277AAA4BC3ED007AA74B93ED067A7B680E
:102D3000D3ED007A27EE277AA34BD3ED076A7B68A1
:102D40000433D3ED007A66EEA77A37EE277A9E4BEE
:102D5000D3ED086A7B680833D3ED007A66EEA77A74
:102D600037EE277A984BD3ED096A7B680C33D3EDA5
:102D7000007A66EEA77A37EE277A934BD3ED0A6A8C
:102D80007B681033D3ED007A66EEA77A37EE277AA8
:102D90008D4BD3ED0B6A7B681433D3ED007A66EE6E
:102DA000A77A77EE277A894BC3ED017A864B93EDAC
:102DB0000C7A7B68D3ED007A27EE277A824BD3ED2D
:102DC0000D6A7B680433D3ED007A66EEA77A37EE9E
:102DD000277A7D4BD3ED0E6A7B680833D3ED007AFA
:102DE00066EEA77A37EE277A774BD3ED0F6A7B68CA
:102DF0000C33D3ED007A66EEA77A37EE277A724B62
:102E0000D3ED106A7B681033D3ED007A66EEA77AB3
:102E100037EE277A6C4BD3ED116A7B681433D3ED10
:102E2000007A66EEA77A77EE277A684BC3ED027ACE
:102E3000654B93ED127A7B68D3ED007A27EE277A03
:102E4000614BD3ED136A7B680433D3ED007A66EEF1
:102E5000A77A37EE277A5C4BD3ED146A7B68083388
:102E6000D3ED007A66EEA77A37EE277A564BD3ED8C
:102E7000156A7B680C33D3ED007A66EEA77A37EEDD
:102E8000277A514BD3ED166A7B681033D3ED007A65
:102E900066EEA77A37EE277A4B4BD3ED176A7B683D
:102EA0001433D3ED007A66EEA77A77EE277A474B94
:102EB000C3ED037A444B93ED187A7B68D3ED007A27
:102EC00027EE277A404BD3ED196A7B680433D3EDA4
:102ED000007A66EEA77A37EE277A3B4BD3ED1A6A73
:102EE0007B680833D3ED007A66EEA77A37EE277A4F
:102EF000354BD3ED1B6A7B680C33D3ED007A66EE5D
:102F0000A77A37EE277A304BD3ED1C6A7B681033F3
:102F1000D3ED007A66EEA77A37EE277A2A4BD3ED07
:102F20001D6A7B681433D3ED007A66EEA77A77EEDC
:102F3000277A264BC3ED047A234B93ED1E7A7B68E8
:102F4000D3ED007A27EE277A1F4BD3ED1F6A7B68FB
:102F50000433D3ED007A66EEA77A37EE277A1A4B60
:102F6000D3ED206A7B680833D3ED007A66EEA77A4A
:102F700037EE277A144BD3ED216A7B680C33D3EDFF
:102F8000007A66EEA77A37EE277A0F4BD3ED226AE6
:102F90007B681033D3ED007A66EEA77A37EE277A96
:102FA000094BD3ED236A7B681433D3ED007A66EEC8
:102FB000A77A77EE277A054BC3ED057A0023FB60ED
:102FC0001EE000BF5C09002070090020FC08002002
:102FD000FB68DAB20E49FB689B000B44D3ED007A24
:102FE000B0EE670A1046FEF7FFF8F0EE407A084AA6
:102FF000FB689B001344C3ED007AFB680133FB6060
:10300000FB68052BE4DD00BF00BF1037BD46B0BD37
:10301000FC08002080B582B000AF7860012210214A
:103020000D4802F049FC0A2001F08AFD7868FDF79E
:10303000D7F803469AB264237968084805F0A4F8E3
:103040000A2001F07DFD00221021034802F034FC2B
:1030500000BF0837BD4680BD000402403418002080
:1030600080B582B000AF134B1B681B6803F01003E0
:10307000102B17D100233B600E4B1B681B683B6075
:103080000C4B1B685B683B603B680A4BDB6B002B9F
:1030900008D0084BDB6B1B685B68FB80FB8818461D
:1030A00000F01CFC034805F09FF900BF0837BD463F
:1030B00080BD00BF3418002090B583B000AF7860A9
:1030C0007B681B68B3F1804F70D13A4B1B680133AA
:1030D000384A1360374B1968374BA3FB01235A0852
:1030E00013465B001344CA1A002A5FD1334B1B7886
:1030F0001C46FEF759FB0246314923465B00234438
:10310000DB000B441A602D4B1B781C46FEF74CFB72
:1031100002462B4923465B002344DB000B44043367
:103120001A60264B1B781C46FEF73EFB02462449DC
:1031300023465B002344DB000B4408331A601F4B1B
:103140001B781C46FEF748FB02461D4923465B00E0
:103150002344DB000B440C331A60184B1B781C46CD
:10316000FEF73AFB0246164923465B002344DB0088
:103170000B4410331A60114B1B781C46FEF72CFBD6
:1031800002460F4923465B002344DB000B44143303
:103190001A600A4B1B780133DAB2084B1A70074BDE
:1031A0001B783F2B02D9054B00221A7000BF0C3749
:1031B000BD4690BDF8080020ABAAAAAA010A0020CB
:1031C000040A002080B588B000AF4D4B9B78DBB27D
:1031D000002B01D1022300E001237B61494B1A68D7
:1031E000494B1B68D31A7A699A4200F28580454B95
:1031F0001B68454A1360424BDB78DBB2002B37D1AA
:10320000424B1B78012B77D10023FB6128E0404A19
:10321000FB699B0013441B683B613B69FB60FA68D8
:10322000FB699B00D1B23B4AD154FB681A0AFB6987
:103230009B000133D1B2374AD154FB681A0CFB69A9
:103240009B000233D1B2334AD154FB681A0EFB699A
:103250009B000333D1B22F4AD154FB690133FB6188
:10326000FB69052BD3DD1D212A4800F0B6FC43E0A5
:10327000234BDB78DBB2012B3ED10023BB6128E07E
:10328000234ABB699B0013441B68BB60BB687B601F
:103290007A68BB699B00D1B21E4AD1547B681A0A76
:1032A000BB699B000133D1B21A4AD1547B681A0C16
:1032B000BB699B000233D1B2164AD1547B681A0E07
:1032C000BB699B000333D1B2124AD154BB690133AD
:1032D000BB61BB69052BD3DD0E4B00221A760D4B6B
:1032E00000225A760B4B80229A760A4B7F22DA769E
:1032F0001C21084800F0FEFC00BF2037BD4680BD01
:103300005C090020F808002004100020000A0020BA
:10331000FC0800200810002090B589B000AF01F033
:103320009DFB00F0E7F8FEF7C9F8FDF7F7FEFEF7A2
:1033300065F900F0BDFF00F0F1FF01F097FA01F030
:1033400023FAFDF7D5FFFDF7F3FD5648FFF762FEC0
:10335000FDF704FF5448FFF75DFE0122102153489A
:1033600002F0AAFA01220121514802F0A5FA032035
:10337000FEF74AFA4F48FFF74DFE4F48FFF74AFE67
:103380004E494F4800F052FA00F038FFB861BB696F
:10339000002B01D14B4B00E04B4B1846FFF73AFE98
:1033A0004A4804F0BDFA4A4B1A684A4B1B68D31AC4
:1033B00040F6B732934206D94748FFF72BFE444BFD
:1033C0001B68444A13603B4600221A605A609A60A8
:1033D000DA601A615A61414B1A78414B1B789A4264
:1033E00042D03F4B1A783D4B1A700023FB772BE0FD
:1033F000FC7FFB7F1846FEF7F1FFF0EE407AA3005A
:1034000020333B44203BC3ED007A364B1B79DBB2C3
:10341000002B16D1FB7F344A12339B001344D3EDAB
:10342000007AFB7F9B0020333B44203B93ED007AE6
:10343000FB7F77EE677A9B0020333B44203BC3ED54
:10344000007AFB7F0133FB77FB7F052BD0D9254B1F
:103450001B79DBB2012B03D13B461846FDF7AAFDD1
:103460003B461846FEF7E8FFFDF712FE0346002B29
:1034700009D01C4B00221A71FDF7FCFDFEF712F873
:103480001A48FFF7C7FD174B1B78DBB2012B02D19F
:10349000FFF798FE03E00E4B1B68154A136000F01F
:1034A00041FA80E7F8A500081CA6000800000240C9
:1034B0000004024034A6000844A60008693E000843
:1034C0003418002060A6000878A60008EC17002039
:1034D000F80800200811002088A60008020A002031
:1034E000010A00205C090020FC0800208CA60008CE
:1034F0000410002080B594B000AF07F12003302203
:103500000021184606F065FA07F10C0300221A6044
:103510005A609A60DA601A610023BB60274B1B6C0B
:10352000264A43F080531364244B1B6C03F08053F2
:10353000BB60BB6800237B60214B1B68204A43F4BF
:10354000404313601E4B1B6803F440437B607B6861
:1035500001233B624FF480337B620223BB634FF451
:103560008003FB6308233B64C0237B640223BB64AA
:103570000423FB6407F12003184603F0DBF903463C
:10358000002B01D000F01EF80F23FB6002233B61EB
:1035900000237B614FF48053BB610023FB6107F183
:1035A0000C030321184603F03DFC0346002B01D019
:1035B00000F008F800BF5037BD4680BD003802401B
:1035C0000070004080B400AF72B600BF00BFFDE7DE
:1035D00080B483B000AF78607B689B889BB2013B6E
:1035E0009BB218460C37BD465DF8047B704780B42B
:1035F00085B000AFF860B9601346FB80FB68BA681D
:103600001A60FB68FA889A80FB680022DA80FB68FF
:1036100000221A8100BF1437BD465DF8047B704755
:1036200080B483B000AF78607B68DB889AB27B6837
:103630001B899BB2D31A9BB218460C37BD465DF866
:10364000047B7047B0B584B000AF78607B681C68BD
:103650007B681B899DB27868FFF7BAFF03462B4051
:103660009BB223441B78FB737B681B899BB201339D
:103670009AB27B681A81FB7B18461037BD46B0BDF5
:10368000B0B582B000AF78600B467B807B681C6869
:103690007B681B899AB27B8813449DB27868FFF7D8
:1036A00097FF03462B409BB223441B78DBB218469E
:1036B0000837BD46B0BD80B586B000AFF860B960D0
:1036C0001346FB80F868FFF783FF0346FB821BE08D
:1036D000FB68DB889BB20133BB82FB681B899BB212
:1036E000BA8A9A4216D0BB685A1CBA60FA68126845
:1036F000F968C98888B2F98A014089B20A441B78FE
:103700001370FB68BA8ADA80FB885A1EFA80002B95
:10371000DED100E000BF1837BD4680BD80B586B061
:1037200000AFF860B9601346FB80F868FFF750FF00
:103730000346BB82F868FFF773FF03467B82FA8873
:103740007B8A9A4201D97B8AFB800023FB8218E0A6
:10375000FB681B68FA68128991B2BA8A0A4092B271
:103760001A44FB8AB9680B441278D2B21A70FB680B
:103770001B899BB201339AB2FB681A81FB8A013321
:10378000FB82FA8AFB889A42E2D3FB8818461837F4
:10379000BD4680BD80B584B000AF78600B467B80AD
:1037A0007868FFF73DFF0346FB817A88FB899A42E0
:1037B00001D9FB897B807B681B899AB27B88134483
:1037C0009AB27B681A8100BF1037BD4680BD0000E9
:1037D00080B582B000AF78600B467B80012210215B
:1037E000104802F069F80A2001F0AAF900BF0E4B58
:1037F0001B681B681B6803F04003402BF7D10A4B82
:1038000018687A886423796804F0BEFC0A2001F005
:1038100097F900221021034802F04EF800BF083744
:10382000BD4680BD000402400C11002080B582B06E
:1038300000AF78603960124A7B681360114A3B68B8
:103840001360114B00221A704FF480620F49104828
:10385000FFF7CDFE0A2001F073F9002210210D4878
:1038600002F02AF87B681B68DA687B681B6842F004
:103870001002DA6000F010F800BF0837BD4680BDC6
:103880000C11002010110020201700202013002010
:10389000141300200004024080B500AF0C4B1B68DD
:1038A000DB6B002B04D00A4B1B68184604F01CFD90
:1038B000084B00221A70064B1B684FF40072064931
:1038C000184604F0ECFC034B01221A7000BF80BDC7
:1038D0000C110020201700201411002080B584B0A6
:1038E00000AF0346FB804FF40073FB81FA89FB882D
:1038F000D31ABB81BB89002B09D0BA89FB899A42B4
:1039000005D8BB891A4605490548FFF7D4FEFFF7DD
:10391000C3FF00BF1037BD4680BD00BF141100209B
:103920001413002080B5C4B000AF1CE000215E4835
:10393000FFF7A6FE034687F8073197F80731AA2B51
:1039400003D05948FFF77EFE0DE001215648FFF7EE
:1039500097FE034687F8063197F80631552B09D0B4
:103960005148FFF76FFE5048FFF75AFE0346032BFE
:10397000DCD800E000BF4C48FFF752FE0346032BA3
:1039800040F28A804848FFF74BFE0346A7F804310F
:103990004FF6FF73A7F80E310323A7F80C311DE093
:1039A000B7F80C3119464048FFF76AFE03460D2B65
:1039B0000FD1B7F80C3101339BB219463A48FFF7E3
:1039C0005FFE03460A2B04D1B7F80C31A7F80E317D
:1039D0000BE0B7F80C310133A7F80C31B7F80C3114
:1039E0005A1CB7F804319A42DADBB7F90E31022BD0
:1039F00054DDB7F80E310233A7F80231B7F80231BF
:103A0000042B06D1FF2387F80B310023A7F80831D8
:103A10000BE002212448FFF733FE034687F80B3101
:103A2000B7F80231053BA7F8083102211E48FFF71D
:103A3000B1FE97F80B31FF2B02D01B48FFF702FEB7
:103A4000B7F80831002B0AD0B7F80831FA2B06D89E
:103A5000B7F808213B1D19461348FFF75FFE1248CF
:103A6000FFF7F0FD034687F801310F48FFF7EAFD45
:103A7000034687F8003197F80B31FF2B0FD00B4B23
:103A80001B68002B0BD0094B1B68B7F80821391DA8
:103A900097F80B01984702E000BF00E000BF07F570
:103AA0008877BD4680BD00BF141300201011002090
:103AB00080B5C4B000AF07F58873A3F588731960AB
:103AC000114607F58873A3F2091302461A7007F529
:103AD0008873A3F586730A461A800023A7F80E316F
:103AE000B7F80E315A1CA7F80E211A4607F588734D
:103AF000A3F58273AA219954B7F80E315A1CA7F87E
:103B00000E211A4607F58873A3F58273552199543F
:103B1000B7F80E315A1CA7F80E21194607F588731D
:103B2000A3F5827307F58872A2F2091212785A542B
:103B300007F58873A3F588731B68002B28D007F559
:103B40008873A3F586731B88002B21D007F5887333
:103B5000A3F586731B88FB2B1AD8B7F80E3107F133
:103B60000C02D01807F58873A3F586731A8807F539
:103B70008873A3F58873196805F0B7FF07F5887394
:103B8000A3F58673B7F80E211B881344A7F80E31EE
:103B9000B7F80E315A1CA7F80E211A4607F588739C
:103BA000A3F582730D219954B7F80E315A1CA7F86A
:103BB0000E211A4607F58873A3F582730A219954DA
:103BC000B7F80E2107F10C0311461846FFF700FE67
:103BD00000BF07F58877BD4680BD80B5C4B000AF93
:103BE00007F58873A3F5867318600A4607F588738E
:103BF000A3F587731A800023A7F80E31B7F80E31AA
:103C00005A1CA7F80E211A4607F58873A3F582738C
:103C1000AA219954B7F80E315A1CA7F80E211A465A
:103C200007F58873A3F582735521995407F58873B6
:103C3000A3F586731B68002B28D007F58873A3F5BE
:103C400087731B88002B21D007F58873A3F5877332
:103C50001B88FC2B1AD8B7F80E3107F10C02D018CC
:103C600007F58873A3F587731A8807F58873A3F59A
:103C70008673196805F039FF07F58873A3F5877314
:103C8000B7F80E211B881344A7F80E31B7F80E3190
:103C90005A1CA7F80E211A4607F58873A3F58273FC
:103CA0000D219954B7F80E315A1CA7F80E211A4667
:103CB00007F58873A3F582730A219954B7F80E218A
:103CC00007F10C0311461846FFF782FD00BF07F508
:103CD0008877BD4680BD80B582B000AF78600B4666
:103CE0007B807B8819467868FFF772FD00BF083734
:103CF000BD4680BD80B5C4B000AF07F58873A3F59D
:103D0000867318600A4607F58873A3F587731A80CF
:103D10000023A7F80E3107F58873A3F586731B6897
:103D2000002B28D007F58873A3F587731B88002B19
:103D300021D007F58873A3F587731B88FC2B1AD84D
:103D4000B7F80E3107F10C02D01807F58873A3F508
:103D500087731A8807F58873A3F58673196805F0C9
:103D6000C4FE07F58873A3F58773B7F80E211B8887
:103D70001344A7F80E31B7F80E2107F10C031146D2
:103D80001846FFF725FD00BF07F58877BD4680BDC3
:103D900080B485B000AF786087ED000A3B68FB60B7
:103DA000FB68DAB27B681A70FB681A0A7B68013319
:103DB000D2B21A70FB681A0C7B680233D2B21A7046
:103DC000FB681A0E7B680333D2B21A7000BF143737
:103DD000BD465DF8047B704780B485B000AF786065
:103DE0007B6803331B781A467B6802331B781B02FF
:103DF0001A437B6801331B781B041A437B681B78CA
:103E00001B061343FB60FB68BB60BB6807EE903A80
:103E1000B0EE670A1437BD465DF8047B704780B585
:103E200082B000AF03463960FB711346BB80FB795B
:103E300063F07F03DBB2BA8839681846FFF738FEB3
:103E400000BF0837BD4680BD80B582B000AF0346D5
:103E5000FB71FB79002200211846FFF7E0FF00BF4D
:103E60000837BD4680BD000090B5ADB000AF034639
:103E70003960FB711346BB80FB79013B352B00F2A7
:103E8000A78101A252F823F0613F0008773F0008A4
:103E90008D3F000813400008474000085B400008C1
:103EA0007F400008D1410008D1410008D1410008FD
:103EB000D1410008D1410008D1410008D14100089A
:103EC000D1410008D1410008D1410008D14100088A
:103ED000D1410008D1410008D1410008D14100087A
:103EE000D1410008D1410008D1410008D14100086A
:103EF000D1410008D1410008D1410008D14100085A
:103F0000D141000851410008D1410008D1410008C9
:103F1000D1410008D1410008D1410008D141000839
:103F2000D1410008D1410008D1410008D141000829
:103F3000D1410008D1410008D1410008D141000819
:103F4000D1410008DF400008F340000803410008A9
:103F50003141000821410008414100081341000897
:103F6000A14B00221A70A14B00221A70FB7918464F
:103F7000FFF76AFF34E19C4B01221A709B4B012230
:103F80001A70FB791846FFF75FFF29E1964B1B6912
:103F90005A1C95490A61C7F8A43000233B73D7F82F
:103FA000A430DBB27B73D7F8A4301B0ADBB2BB733F
:103FB000D7F8A4301B0CDBB2FB73D7F8A4301B0E70
:103FC000DBB23B740023C7F8AC3017E0D7F8AC3055
:103FD0009B00053307F10C021A448549D7F8AC3031
:103FE0009B000B44D3ED007AB0EE670A1046FFF752
:103FF000CFFED7F8AC300133C7F8AC30D7F8AC30CF
:10400000052BE3DD07F10C031D211846FFF7E5FD45
:10401000E6E0BB88002B07D1734B9B899BB2013331
:104020009AB2714B9A81DBE03B681B78002B14BF7E
:1040300001230023DBB21A466B4B9A70FB791846BA
:10404000FFF702FFCCE06B48FCF7CAF803469BB2CF
:1040500019466848FFF73FFEC2E0664B1B8A1B0A01
:104060009BB2DBB23B73634B1B8ADBB27B7307F102
:104070000C01FB7902221846FFF7D1FEB0E05A4B43
:104080001B78DBB23B73584B5B78DBB27B73564BD0
:104090009B78DBB2BB73544BDB78DBB2FB73524BC8
:1040A0005B899BB2DBB23B744F4B5B899BB21B0AB3
:1040B0009BB2DBB27B744C4B9B899BB2DBB2BB7473
:1040C000494B9B899BB21B0A9BB2DBB2FB7407F185
:1040D0000C01FB7908221846FFF7A1FE80E0FCF7EF
:1040E0003BFF414B01221A71FB791846FFF7ACFEEA
:1040F00076E03D4B0022DA70FB791846FFF7A4FE0C
:104100006EE0394B0122DA70FB791846FFF79CFE0E
:1041100066E0FCF7CFFFFB791846FFF795FE5FE0FE
:10412000314B00225A70FB791846FFF78DFE57E09D
:104130002D4B01225A70FB791846FFF785FE4FE0A0
:10414000294B02225A70FB791846FFF77DFE47E0A3
:10415000BB88182B07D8244B9B899BB201339AB29A
:10416000214B9A813CE00023C7F8A8301EE0D7F825
:10417000A8309B0001333A681A443B681B781C4600
:104180001046FFF729FEF0EE407A1B4923465B00FC
:1041900023445B00D7F8A82013449B000B44C3EDD5
:1041A000007AD7F8A8300133C7F8A830D7F8A8307C
:1041B000052BDCDD3B681B781846FDF73FF93B68B3
:1041C0001A78FB791343DBB21846FFF73DFE07E090
:1041D000054B9B899BB201339AB2034B9A8100BF76
:1041E00000BFB437BD4690BD5C090020000A002026
:1041F000FC080020000000207009002080B483B07B
:1042000000AF00237B60284B1B68002B12D0264B8D
:104210001B68DB6803F40053002B03D0234B0122FF
:104220001A730EE0214B00221A737B6843F480332B
:104230007B6006E01D4B00221A737B6843F48033D9
:104240007B60194BDB6B002B18D0174BDB6B1B68AB
:10425000002B13D0144BDB6B1B681B6803F00103AE
:10426000002B03D0114B01225A730EE00F4B00229A
:104270005A737B6843F400337B6006E00B4B0022EB
:104280005A737B6843F400337B60084B1B6823F44C
:1042900070227B681343054A13607B6818460C370D
:1042A000BD465DF8047B70473418002024170020B9
:1042B00080B500AF174B184A1A60164B4FF4827244
:1042C0005A60144B00229A60124B0022DA60114BA4
:1042D00000221A610F4B00225A610E4B4FF40072FC
:1042E0009A610C4B2022DA610A4B00221A62094BB8
:1042F00000225A62074B00229A62064B0A22DA62B7
:10430000044802F0AFFF0346002B01D0FFF75AF933
:1043100000BF80BD381700200030014080B500AFDD
:10432000174B184A1A60164B4FF482725A60144B9E
:1043300000229A60124B0022DA60114B02221A61AD
:104340000F4B01225A610E4B4FF400729A610C4BD5
:104350000822DA610A4B00221A62094B00225A62D3
:10436000074B00229A62064B0A22DA62044802F0E6
:1043700079FF0346002B01D0FFF724F900BF80BD71
:10438000901700200038004080B58CB000AF7860F6
:1043900007F11C0300221A605A609A60DA601A6101
:1043A0007B681B68324A93422CD10023BB61314B9E
:1043B0005B6C304A43F4805353642E4B5B6C03F4C4
:1043C0008053BB61BB6900237B612A4B1B6B294A6D
:1043D00043F001031363274B1B6B03F001037B6165
:1043E0007B69E023FB6102233B6200237B620323A2
:1043F000BB620523FB6207F11C0319461E4801F04E
:10440000D7F831E07B681B681C4A93422CD100230B
:104410003B61184B1B6C174A43F480431364154BE4
:104420001B6C03F480433B613B690023FB60114B31
:104430001B6B104A43F0020313630E4B1B6B03F01C
:104440000203FB60FB684FF46043FB6102233B62A5
:1044500000237B620323BB620523FB6207F11C037D
:104460001946074801F0A4F800BF3037BD4680BDAB
:104470000030014000380240000002400038004097
:104480000004024080B485B000AF0023FB602D4BD8
:104490005B6C2C4A43F4804353642A4B5B6C03F4FB
:1044A0008043FB60FB680023BB60264B1B6C254AE6
:1044B00043F080531364234B1B6C03F08053BB60A9
:1044C000BB6800237B601F4B1B6B1E4A43F001033C
:1044D00013631C4B1B6B03F001037B607B680023A1
:1044E0003B60184B1B6B174A43F002031363154BD9
:1044F0001B6B03F002033B603B68134B1B68124AC3
:1045000043F040431360114B1B68104A43F0C00353
:1045100013600E4B1B680D4A43F4407313600A4B43
:10452000DB68094A23F04043D360084BDB68074A45
:1045300023F47073D36000BF1437BD465DF8047B6D
:10454000704700BF003802400000024000040240F3
:1045500080B400AF00BFFDE780B400AF00BFFDE74F
:1045600080B400AF00BFFDE780B400AF00BFFDE73F
:1045700080B400AF00BFFDE780B400AF00BFBD4610
:104580005DF8047B704780B400AF00BFBD465DF8A6
:10459000047B704780B400AF00BFBD465DF8047B6C
:1045A000704780B500AF00F0ABFA00BF80BD0000DF
:1045B00080B500AF024803F015FA00BF80BD00BF10
:1045C000EC17002080B500AF024800F087FD00BF67
:1045D00080BD00BF7C18002080B400AF01231846C6
:1045E000BD465DF8047B704780B582B000AF78604F
:1045F000396005F04DFA034616221A604FF0FF337A
:1046000018460837BD4680BD80B582B000AF7860DF
:104610004FF0FF317868FFF7E7FF00BFFDE780B597
:1046200086B000AFF860B9607A6000237B610AE071
:10463000AFF300800146BB685A1CBA60CAB21A7058
:104640007B6901337B617A697B689A42F0DB7B6826
:1046500018461837BD4680BD80B586B000AFF860FB
:10466000B9607A6000237B6109E0BB685A1CBA60BC
:104670001B781846AFF300807B6901337B617A6950
:104680007B689A42F1DB7B6818461837BD4680BDCF
:1046900080B483B000AF78604FF0FF3318460C371A
:1046A000BD465DF8047B704780B483B000AF78608E
:1046B00039603B684FF400525A60002318460C37AB
:1046C000BD465DF8047B704780B483B000AF78606E
:1046D000012318460C37BD465DF8047B704780B453
:1046E00085B000AFF860B9607A60002318461437CF
:1046F000BD465DF8047B704780B586B000AF78603A
:10470000144A154BD31A7B617B693B61134B1B68C1
:10471000002B02D1114B124A1A60104B1A687B68A9
:1047200013443A699A4207D205F0B2F903460C22C3
:104730001A604FF0FF3309E0084B1B68FB60074B22
:104740001A687B681344054A1360FB6818461837DB
:10475000BD4680BD0000022000040000E8170020D4
:10476000301A002080B400AF064BD3F88830054AD9
:1047700043F47003C2F8883000BFBD465DF8047B87
:10478000704700BF00ED00E080B586B000AF07F1D4
:10479000080300221A605A609A60DA603B460022E1
:1047A0001A605A601D4B4FF080421A601B4B5F220B
:1047B0005A601A4B00229A60184B40F2E732DA60D6
:1047C000164B00221A61154B00229A61134803F020
:1047D00057F80346002B01D0FEF7F4FE4FF4805348
:1047E000BB6007F1080319460C4803F0EBF90346D8
:1047F000002B01D0FEF7E6FE00233B6000237B6028
:104800003B461946054803F0EDFB0346002B01D05B
:10481000FEF7D8FE00BF1837BD4680BDEC1700205C
:1048200080B584B000AF78607B681B68B3F1804FBF
:1048300015D10023FB600C4B1B6C0B4A43F00103AA
:104840001364094B1B6C03F00103FB60FB6800223F
:1048500001211C2000F073FA1C2000F08CFA00BF2C
:104860001037BD4680BD00BF0038024080B500AFA4
:10487000114B124A1A60104B4FF4E1325A600E4B42
:1048800000229A600C4B0022DA600B4B00221A6166
:10489000094B0C225A61084B00229A61064B0022F8
:1048A000DA61054803F020FC0346002B01D0FEF737
:1048B00089FE00BF80BD00BF3418002000100140F9
:1048C00080B58AB000AF786007F1140300221A6047
:1048D0005A609A60DA601A617B681B68444A9342A6
:1048E00040F0828000233B61424B5B6C414A43F0C5
:1048F000100353643F4B5B6C03F010033B613B6957
:104900000023FB603B4B1B6B3A4A43F001031363EC
:10491000384B1B6B03F00103FB60FB680023BB609B
:10492000344B1B6B334A43F002031363314B1B6B55
:1049300003F00203BB60BB684FF400437B610223BA
:10494000BB610023FB6103233B6207237B6207F10A
:1049500014031946284800F02BFE08237B6102232C
:10496000BB610023FB6103233B6207237B6207F1EA
:1049700014031946214800F01BFE214B214A1A60FE
:104980001F4B4FF000625A601D4B00229A601C4B77
:104990000022DA601A4B4FF480621A61184B002231
:1049A0005A61174B00229A61154B4FF48072DA61FD
:1049B000134B00221A62124B00225A62104800F078
:1049C000F5F90346002B01D0FEF7FCFD7B680C4A8D
:1049D000DA630B4A7B68936300220021252000F0F4
:1049E000AEF9252000F0C7F900BF2837BD4680BDCD
:1049F0000010014000380240000002400004024064
:104A00007C18002040640240DFF834D0FFF7AAFE93
:104A10000C480D490D4A002302E0D458C450043319
:104A2000C4188C42F9D30A4A0A4C002301E01360EF
:104A30000432A242FBD305F031F8FEF76DFC70475B
:104A400000000220000000207C000020A0A7000839
:104A50007C0000202C1A0020FEE7000080B500AF8B
:104A60000E4B1B680D4A43F4007313600B4B1B681D
:104A70000A4A43F480631360084B1B68074A43F4F7
:104A800080731360032000F04FF90F2000F008F846
:104A9000FFF7F8FC0023184680BD00BF003C024031
:104AA00080B582B000AF7860124B1A68124B1B7849
:104AB00019464FF47A73B3FBF1F3B2FBF3F31846E4
:104AC00000F067F90346002B01D001230EE07B685C
:104AD0000F2B0AD8002279684FF0FF3000F02FF931
:104AE000064A7B681360002300E00123184608375C
:104AF000BD4680BD140000201C00002018000020CE
:104B000080B400AF064B1B781A46064B1B68134453
:104B1000044A136000BFBD465DF8047B704700BFC8
:104B20001C000020DC18002080B400AF034B1B6881
:104B30001846BD465DF8047B704700BFDC180020B6
:104B400080B584B000AF7860FFF7EEFFB8607B6897
:104B5000FB60FB68B3F1FF3F05D00A4B1B781A4698
:104B6000FB681344FB6000BFFFF7DEFF0246BB6833
:104B7000D31AFA689A42F7D800BF00BF1037BD4673
:104B800080BD00BF1C00002080B485B000AF7860FD
:104B90007B6803F00703FB600C4BDB68BB60BA6803
:104BA0004FF6FF031340BB60FB681A02BB68134358
:104BB00043F0BF6343F40033BB60044ABB68D36077
:104BC00000BF1437BD465DF8047B704700ED00E080
:104BD00080B400AF044BDB681B0A03F007031846E0
:104BE000BD465DF8047B704700ED00E080B483B003
:104BF00000AF0346FB7197F90730002B0BDBFB7905
:104C000003F01F02074997F907305B09012000FAFA
:104C100002F241F8232000BF0C37BD465DF8047B4B
:104C2000704700BF00E100E080B483B000AF0346EE
:104C30003960FB7197F90730002B0ADB3B68DAB269
:104C40000C4997F907301201D2B20B4483F80023C4
:104C50000AE03B68DAB20849FB7903F00F03043B32
:104C60001201D2B20B441A7600BF0C37BD465DF874
:104C7000047B704700E100E000ED00E080B489B003
:104C800000AFF860B9607A60FB6803F00703FB616E
:104C9000FB69C3F10703042B28BF0423BB61FB6935
:104CA0000433062B02D9FB69033B00E000237B6140
:104CB0004FF0FF32BB6902FA03F3DA43BB681A40D4
:104CC0007B699A404FF0FF317B6901FA03F3D943C6
:104CD0007B680B40134318462437BD465DF8047BC0
:104CE0007047000080B582B000AF78607B68013B00
:104CF000B3F1807F01D301230FE00A4A7B68013BB7
:104D000053600F214FF0FF30FFF78EFF054B00225D
:104D10009A60044B07221A60002318460837BD46E4
:104D200080BD00BF10E000E080B582B000AF7860C9
:104D30007868FFF729FF00BF0837BD4680BD80B502
:104D400086B000AF0346B9607A60FB7300237B61D5
:104D5000FFF73EFF78617A68B9687869FFF78EFFE0
:104D6000024697F90F3011461846FFF75DFF00BF66
:104D70001837BD4680BD80B582B000AF0346FB71D9
:104D800097F907301846FFF731FF00BF0837BD46D7
:104D900080BD80B582B000AF78607868FFF7A2FF71
:104DA000034618460837BD4680BD000080B586B072
:104DB00000AF786000237B61FFF7B6FE38617B6847
:104DC000002B01D1012399E07B68022283F8352072
:104DD0007B68002283F834207B681B681A687B6834
:104DE0001B6822F001021A600FE0FFF79DFE0246E9
:104DF0003B69D31A052B08D97B6820225A657B684A
:104E0000032283F83520032378E07B681B681B6846
:104E100003F00103002BE8D17B681B681B687B61F2
:104E20007A69384B13407B617B685A687B689B6862
:104E30001A437B68DB681A437B681B691A437B68EB
:104E40005B691A437B689B691A437B68DB691A4379
:104E50007B681B6A13437A6913437B617B685B6AD7
:104E6000042B07D17B68DA6A7B681B6B13437A6972
:104E700013437B617B681B687A691A607B681B68D7
:104E80005B697B617B6923F007037B617B685B6AFD
:104E90007A6913437B617B685B6A042B17D17B685B
:104EA0009B6A7A6913437B617B68DB6A002B0ED0B7
:104EB000786800F001FB0346002B08D07B68402295
:104EC0005A657B68012283F83520012316E07B6850
:104ED0001B687A695A61786800F0B8FA0346FB608B
:104EE0007B68DB6D3F229A40FB689A607B680022FA
:104EF0005A657B68012283F835200023184618374D
:104F0000BD4680BD3F8010F080B586B000AFF86030
:104F1000B9607A603B600023FB75FB689B6D3B6169
:104F2000FB6893F83430012B01D1022340E0FB6889
:104F3000012283F83420FB6893F83530DBB2012B73
:104F40002FD1FB68022283F83520FB6800225A65C6
:104F50003B687A68B968F86800F04AFAFB68DB6D6C
:104F60003F229A403B699A60FB681B681A68FB689D
:104F70001B6842F016021A60FB681B6C002B07D0FE
:104F8000FB681B681A68FB681B6842F008021A601D
:104F9000FB681B681A68FB681B6842F001021A6014
:104FA00005E0FB68002283F834200223FB75FB7DBB
:104FB00018461837BD4680BD80B584B000AF786014
:104FC0007B689B6DFB60FFF7AFFDB8607B6893F873
:104FD0003530DBB2022B08D07B6880225A657B68B3
:104FE000002283F83420012352E07B681B681A6892
:104FF0007B681B6822F016021A607B681B685A697E
:105000007B681B6822F080025A617B681B6C002B56
:1050100003D17B689B6C002B07D07B681B681A68E8
:105020007B681B6822F008021A607B681B681A689C
:105030007B681B6822F001021A6013E0FFF774FD21
:105040000246BB68D31A052B0CD97B6820225A650F
:105050007B68032283F835207B68002283F83420A4
:10506000032315E07B681B681B6803F00103002B1A
:10507000E4D17B68DB6D3F229A40FB689A607B68D5
:10508000012283F835207B68002283F83420002336
:1050900018461037BD4680BD80B483B000AF78603D
:1050A0007B6893F83530DBB2022B04D07B6880221A
:1050B0005A6501230CE07B68052283F835207B6864
:1050C0001B681A687B681B6822F001021A600023C3
:1050D00018460C37BD465DF8047B704780B586B036
:1050E00000AF78600023BB608E4B1B688E4AA2FB2A
:1050F00003239B0A7B617B689B6D3B613B691B685B
:10510000FB607B68DB6D08229A40FB681340002B34
:105110001AD07B681B681B6803F00403002B13D0B4
:105120007B681B681A687B681B6822F004021A609F
:105130007B68DB6D08229A403B699A607B685B6DF7
:1051400043F001027B685A657B68DB6D01229A405F
:10515000FB681340002B12D07B681B685B6903F06F
:105160008003002B0BD07B68DB6D01229A403B69EA
:105170009A607B685B6D43F002027B685A657B68CE
:10518000DB6D04229A40FB681340002B12D07B6831
:105190001B681B6803F00203002B0BD07B68DB6DE0
:1051A00004229A403B699A607B685B6D43F004027D
:1051B0007B685A657B68DB6D10229A40FB68134060
:1051C000002B43D07B681B681B6803F00803002B8F
:1051D0003CD07B68DB6D10229A403B699A607B680B
:1051E0001B681B6803F48023002B18D07B681B68A6
:1051F0001B6803F40023002B08D17B681B6C002B79
:1052000024D07B681B6C786898471FE07B689B6C98
:10521000002B1BD07B689B6C7868984716E07B68F6
:105220001B681B6803F48073002B07D17B681B6825
:105230001A687B681B6822F008021A607B681B6C86
:10524000002B03D07B681B6C786898477B68DB6D0C
:1052500020229A40FB681340002B00F08F807B686F
:105260001B681B6803F01003002B00F087807B682D
:10527000DB6D20229A403B699A607B6893F8353059
:10528000DBB2052B36D17B681B681A687B681B680C
:1052900022F016021A607B681B685A697B681B68DB
:1052A00022F080025A617B681B6C002B03D17B6863
:1052B0009B6C002B07D07B681B681A687B681B6897
:1052C00022F008021A607B68DB6D3F229A403B693E
:1052D0009A607B68012283F835207B68002283F87E
:1052E00034207B681B6D002B7ED07B681B6D78683B
:1052F000984779E07B681B681B6803F48023002BC8
:105300001DD07B681B681B6803F40023002B0DD1A4
:105310007B685B6C002B31D07B685B6C786898474E
:105320002CE000BF14000020B5814E1B7B68DB6BB6
:10533000002B23D07B68DB6B786898471EE07B6886
:105340001B681B6803F48073002B0FD17B681B68FC
:105350001A687B681B6822F010021A607B680122C1
:1053600083F835207B68002283F834207B68DB6B70
:10537000002B03D07B68DB6B786898477B685B6D9C
:10538000002B32D07B685B6D03F00103002B22D031
:105390007B68052283F835207B681B681A687B6868
:1053A0001B6822F001021A60BB680133BB607A6996
:1053B0009A4207D37B681B681B6803F00103002B2C
:1053C000F2D100E000BF7B68012283F835207B68C2
:1053D000002283F834207B68DB6C002B05D07B68CF
:1053E000DB6C7868984700E000BF1837BD4680BD89
:1053F00080B485B000AFF860B9607A603B60FB684C
:105400001B681A68FB681B6822F480221A60FB681C
:105410001B683A685A60FB689B68402B08D1FB68A0
:105420001B687A689A60FB681B68BA68DA6007E0F4
:10543000FB681B68BA689A60FB681B687A68DA6068
:1054400000BF1437BD465DF8047B704780B485B05B
:1054500000AF78607B681B68DBB2103B144AA2FB8C
:1054600003231B09FB60134AFB6813441B781A468D
:105470007B68DA65FB68032B09D97B681B6823F41A
:105480007F7323F003031A1D7B689A6507E07B682E
:105490001B6823F47F7323F003037A6893657B68AA
:1054A0009B6D18461437BD465DF8047B704700BFFE
:1054B000ABAAAAAA18A7000880B485B000AF78608C
:1054C0000023FB737B689B6ABB607B689B69002B36
:1054D0001FD1BB68032B56D801A252F823F000BF9E
:1054E000F154000803550008F154000887550008DE
:1054F0007B68DB6A03F08073002B46D00123FB73CB
:1055000043E07B68DB6AB3F1C07F40D10123FB73CA
:105510003DE07B689B69B3F5005F21D1BB68032B3D
:1055200037D801A252F823F0395500083F5500083A
:1055300039550008515500080123FB7330E07B68A2
:10554000DB6A03F08073002B25D00123FB7322E07C
:105550007B68DB6AB3F1C07F1FD10123FB731CE0C2
:10556000BB68022B03D9BB68032B03D018E00123CF
:10557000FB7315E07B68DB6A03F08073002B0ED0B1
:105580000123FB730BE000BF0AE000BF08E000BF8F
:1055900006E000BF04E000BF02E000BF00E000BF83
:1055A000FB7B18461437BD465DF8047B704700BF8F
:1055B00080B489B000AF7860396000237B6100233C
:1055C0003B610023BB610023FB6159E10122FB69C0
:1055D00002FA03F37B613B681B687A6913403B6105
:1055E0003A697B699A4240F048813B685B6803F006
:1055F0000303012B05D03B685B6803F00303022B18
:1056000030D17B689B68BB61FB695B00032202FAB7
:1056100003F3DB43BA691340BB613B68DA68FB699B
:105620005B0002FA03F3BA691343BB617B68BA6992
:105630009A607B685B68BB610122FB6902FA03F335
:10564000DB43BA691340BB613B685B681B0903F02D
:105650000102FB6902FA03F3BA691343BB617B6879
:10566000BA695A603B685B6803F00303032B17D0E9
:105670007B68DB68BB61FB695B00032202FA03F312
:10568000DB43BA691340BB613B689A68FB695B0006
:1056900002FA03F3BA691343BB617B68BA69DA6043
:1056A0003B685B6803F00303022B23D1FB69DA0834
:1056B0007B68083253F82230BB61FB6903F00703B3
:1056C0009B000F2202FA03F3DB43BA691340BB616C
:1056D0003B681A69FB6903F007039B0002FA03F3B6
:1056E000BA691343BB61FB69DA087B680832B969A0
:1056F00043F822107B681B68BB61FB695B000322D7
:1057000002FA03F3DB43BA691340BB613B685B6891
:1057100003F00302FB695B0002FA03F3BA69134367
:10572000BB617B68BA691A603B685B6803F440330D
:10573000002B00F0A2800023FB60574B5B6C564AA5
:1057400043F480435364544B5B6C03F48043FB602D
:10575000FB68524AFB699B08023352F82330BB6155
:10576000FB6903F003039B000F2202FA03F3DB4300
:10577000BA691340BB617B68494A934219D07B6880
:10578000484A934213D07B68474A93420DD07B68C6
:10579000464A934207D07B68454A934201D104238D
:1057A00008E0072306E0032304E0022302E00123CC
:1057B00000E00023FA6902F0030292009340BA6904
:1057C0001343BB613549FB699B080233BA6941F851
:1057D0002320384B9B68BB613B69DB43BA691340AC
:1057E000BB613B685B6803F48013002B03D0BA698C
:1057F0003B691343BB612F4ABB6993602D4BDB6848
:10580000BB613B69DB43BA691340BB613B685B68C2
:1058100003F40013002B03D0BA693B691343BB6147
:10582000244ABB69D360234B5B68BB613B69DB43A4
:10583000BA691340BB613B685B6803F40033002B1B
:1058400003D0BA693B691343BB611A4ABB69536011
:10585000184B1B68BB613B69DB43BA691340BB61F2
:105860003B685B6803F48033002B03D0BA693B6963
:105870001343BB610F4ABB691360FB690133FB61D2
:10588000FB690F2B7FF6A2AE00BF00BF2437BD46D9
:105890005DF8047B704700BF0038024000380140CB
:1058A000000002400004024000080240000C0240D8
:1058B00000100240003C014080B483B000AF78602B
:1058C0000B467B8013467B707B78002B03D07A8855
:1058D0007B689A6103E07B881A047B689A6100BF49
:1058E0000C37BD465DF8047B7047000080B584B07E
:1058F00000AF78607B68002B01D101232BE17B682E
:1059000093F83D30DBB2002B06D17B68002283F890
:105910003C207868FBF7A0FE7B68242283F83D20BA
:105920007B681B681A687B681B6822F001021A609A
:105930007B681B681A687B681B6842F400421A6027
:105940007B681B681A687B681B6822F400421A6037
:1059500001F060FCF8607B685B68814A934207D87D
:10596000FB68804A934294BF01230023DBB206E028
:10597000FB687D4A934294BF01230023DBB2002BD6
:1059800001D00123E7E0FB68784AA2FB03239B0CCC
:10599000BB607B681B685B6823F03F017B681B680A
:1059A000BA680A435A607B681B681B6A23F03F0190
:1059B0007B685B686A4A934202D8BB68013309E09E
:1059C000BB684FF4967202FB03F3694AA2FB032300
:1059D0009B0901337A6812680B4313627B681B686A
:1059E000DB6923F44F4222F0FF027B685B685C496D
:1059F0008B4219D8FB68591E7B685B685B00B1FB62
:105A0000F3F3591C40F6FC730B40002B0AD0FB68E3
:105A1000591E7B685B685B00B1FBF3F30133C3F392
:105A20000B0351E004234FE07B689B68002B11D1EE
:105A3000FB68581E7B6859680B465B000B44B0FB43
:105A4000F3F30133C3F30B03002B0CBF012300233B
:105A5000DBB212E0FB68581E7B6859680B469B005E
:105A60000B4499000B44B0FBF3F30133C3F30B0376
:105A7000002B0CBF01230023DBB2002B01D001233C
:105A800022E07B689B68002B0ED1FB68581E7B6868
:105A900059680B465B000B44B0FBF3F30133C3F3CF
:105AA0000B0343F400430FE0FB68581E7B68596802
:105AB0000B469B000B4499000B44B0FBF3F30133FE
:105AC000C3F30B0343F44043796809681343CB6184
:105AD0007B681B681B6823F0C0017B68DA697B6800
